{
  "_format": "hh-sol-artifact-1",
  "contractName": "CrowdfundingFactory",
  "sourceName": "contracts/CrowdfundingFactory.sol",
  "abi": [
    {
      "inputs": [],
      "stateMutability": "nonpayable",
      "type": "constructor"
    },
    {
      "inputs": [
        {
          "internalType": "uint256",
          "name": "",
          "type": "uint256"
        }
      ],
      "name": "campaigns",
      "outputs": [
        {
          "internalType": "address",
          "name": "campaignAddress",
          "type": "address"
        },
        {
          "internalType": "address",
          "name": "owner",
          "type": "address"
        },
        {
          "internalType": "string",
          "name": "name",
          "type": "string"
        },
        {
          "internalType": "uint256",
          "name": "creationTime",
          "type": "uint256"
        }
      ],
      "stateMutability": "view",
      "type": "function"
    },
    {
      "inputs": [
        {
          "internalType": "string",
          "name": "_name",
          "type": "string"
        },
        {
          "internalType": "string",
          "name": "_description",
          "type": "string"
        },
        {
          "internalType": "uint256",
          "name": "_goal",
          "type": "uint256"
        },
        {
          "internalType": "uint256",
          "name": "_durationInDays",
          "type": "uint256"
        }
      ],
      "name": "createCampaign",
      "outputs": [],
      "stateMutability": "nonpayable",
      "type": "function"
    },
    {
      "inputs": [],
      "name": "getAllCampaigns",
      "outputs": [
        {
          "components": [
            {
              "internalType": "address",
              "name": "campaignAddress",
              "type": "address"
            },
            {
              "internalType": "address",
              "name": "owner",
              "type": "address"
            },
            {
              "internalType": "string",
              "name": "name",
              "type": "string"
            },
            {
              "internalType": "uint256",
              "name": "creationTime",
              "type": "uint256"
            }
          ],
          "internalType": "struct CrowdfundingFactory.Campaign[]",
          "name": "",
          "type": "tuple[]"
        }
      ],
      "stateMutability": "view",
      "type": "function"
    },
    {
      "inputs": [
        {
          "internalType": "address",
          "name": "_user",
          "type": "address"
        }
      ],
      "name": "getUserCampaigns",
      "outputs": [
        {
          "components": [
            {
              "internalType": "address",
              "name": "campaignAddress",
              "type": "address"
            },
            {
              "internalType": "address",
              "name": "owner",
              "type": "address"
            },
            {
              "internalType": "string",
              "name": "name",
              "type": "string"
            },
            {
              "internalType": "uint256",
              "name": "creationTime",
              "type": "uint256"
            }
          ],
          "internalType": "struct CrowdfundingFactory.Campaign[]",
          "name": "",
          "type": "tuple[]"
        }
      ],
      "stateMutability": "view",
      "type": "function"
    },
    {
      "inputs": [],
      "name": "owner",
      "outputs": [
        {
          "internalType": "address",
          "name": "",
          "type": "address"
        }
      ],
      "stateMutability": "view",
      "type": "function"
    },
    {
      "inputs": [],
      "name": "paused",
      "outputs": [
        {
          "internalType": "bool",
          "name": "",
          "type": "bool"
        }
      ],
      "stateMutability": "view",
      "type": "function"
    },
    {
      "inputs": [],
      "name": "togglePause",
      "outputs": [],
      "stateMutability": "nonpayable",
      "type": "function"
    },
    {
      "inputs": [
        {
          "internalType": "address",
          "name": "",
          "type": "address"
        },
        {
          "internalType": "uint256",
          "name": "",
          "type": "uint256"
        }
      ],
      "name": "userCampaigns",
      "outputs": [
        {
          "internalType": "address",
          "name": "campaignAddress",
          "type": "address"
        },
        {
          "internalType": "address",
          "name": "owner",
          "type": "address"
        },
        {
          "internalType": "string",
          "name": "name",
          "type": "string"
        },
        {
          "internalType": "uint256",
          "name": "creationTime",
          "type": "uint256"
        }
      ],
      "stateMutability": "view",
      "type": "function"
    }
  ],
  "bytecode": "0x6080604052348015600f57600080fd5b50336000806101000a81548173ffffffffffffffffffffffffffffffffffffffff021916908373ffffffffffffffffffffffffffffffffffffffff16021790555061422c8061005f6000396000f3fe608060405234801561001057600080fd5b50600436106100885760003560e01c80638da5cb5b1161005b5780638da5cb5b1461012f578063a1e5084c1461014d578063a318f2691461017d578063c4ae31681461019957610088565b8063141961bc1461008d57806319ac74bd146100c05780635c975abb146100f357806386cdf60414610111575b600080fd5b6100a760048036038101906100a29190610b79565b6101a3565b6040516100b79493929190610c86565b60405180910390f35b6100da60048036038101906100d59190610cfe565b6102ab565b6040516100ea9493929190610c86565b60405180910390f35b6100fb6103c0565b6040516101089190610d59565b60405180910390f35b6101196103d3565b6040516101269190610f01565b60405180910390f35b61013761057a565b6040516101449190610f23565b60405180910390f35b61016760048036038101906101629190610f3e565b61059e565b6040516101749190610f01565b60405180910390f35b610197600480360381019061019291906110a0565b610784565b005b6101a1610a68565b005b600181815481106101b357600080fd5b90600052602060002090600402016000915090508060000160009054906101000a900473ffffffffffffffffffffffffffffffffffffffff16908060010160009054906101000a900473ffffffffffffffffffffffffffffffffffffffff16908060020180546102229061116e565b80601f016020809104026020016040519081016040528092919081815260200182805461024e9061116e565b801561029b5780601f106102705761010080835404028352916020019161029b565b820191906000526020600020905b81548152906001019060200180831161027e57829003601f168201915b5050505050908060030154905084565b600260205281600052604060002081815481106102c757600080fd5b9060005260206000209060040201600091509150508060000160009054906101000a900473ffffffffffffffffffffffffffffffffffffffff16908060010160009054906101000a900473ffffffffffffffffffffffffffffffffffffffff16908060020180546103379061116e565b80601f01602080910402602001604051908101604052809291908181526020018280546103639061116e565b80156103b05780601f10610385576101008083540402835291602001916103b0565b820191906000526020600020905b81548152906001019060200180831161039357829003601f168201915b5050505050908060030154905084565b600060149054906101000a900460ff1681565b60606001805480602002602001604051908101604052809291908181526020016000905b8282101561057157838290600052602060002090600402016040518060800160405290816000820160009054906101000a900473ffffffffffffffffffffffffffffffffffffffff1673ffffffffffffffffffffffffffffffffffffffff1673ffffffffffffffffffffffffffffffffffffffff1681526020016001820160009054906101000a900473ffffffffffffffffffffffffffffffffffffffff1673ffffffffffffffffffffffffffffffffffffffff1673ffffffffffffffffffffffffffffffffffffffff1681526020016002820180546104d69061116e565b80601f01602080910402602001604051908101604052809291908181526020018280546105029061116e565b801561054f5780601f106105245761010080835404028352916020019161054f565b820191906000526020600020905b81548152906001019060200180831161053257829003601f168201915b50505050508152602001600382015481525050815260200190600101906103f7565b50505050905090565b60008054906101000a900473ffffffffffffffffffffffffffffffffffffffff1681565b6060600260008373ffffffffffffffffffffffffffffffffffffffff1673ffffffffffffffffffffffffffffffffffffffff168152602001908152602001600020805480602002602001604051908101604052809291908181526020016000905b8282101561077957838290600052602060002090600402016040518060800160405290816000820160009054906101000a900473ffffffffffffffffffffffffffffffffffffffff1673ffffffffffffffffffffffffffffffffffffffff1673ffffffffffffffffffffffffffffffffffffffff1681526020016001820160009054906101000a900473ffffffffffffffffffffffffffffffffffffffff1673ffffffffffffffffffffffffffffffffffffffff1673ffffffffffffffffffffffffffffffffffffffff1681526020016002820180546106de9061116e565b80601f016020809104026020016040519081016040528092919081815260200182805461070a9061116e565b80156107575780601f1061072c57610100808354040283529160200191610757565b820191906000526020600020905b81548152906001019060200180831161073a57829003601f168201915b50505050508152602001600382015481525050815260200190600101906105ff565b505050509050919050565b600060149054906101000a900460ff16156107d4576040517f08c379a00000000000000000000000000000000000000000000000000000000081526004016107cb906111eb565b60405180910390fd5b600033858585856040516107e790610b22565b6107f595949392919061120b565b604051809103906000f080158015610811573d6000803e3d6000fd5b5090506000819050600060405180608001604052808373ffffffffffffffffffffffffffffffffffffffff1681526020013373ffffffffffffffffffffffffffffffffffffffff168152602001888152602001428152509050600181908060018154018082558091505060019003906000526020600020906004020160009091909190915060008201518160000160006101000a81548173ffffffffffffffffffffffffffffffffffffffff021916908373ffffffffffffffffffffffffffffffffffffffff16021790555060208201518160010160006101000a81548173ffffffffffffffffffffffffffffffffffffffff021916908373ffffffffffffffffffffffffffffffffffffffff16021790555060408201518160020190816109399190611418565b50606082015181600301555050600260003373ffffffffffffffffffffffffffffffffffffffff1673ffffffffffffffffffffffffffffffffffffffff16815260200190815260200160002081908060018154018082558091505060019003906000526020600020906004020160009091909190915060008201518160000160006101000a81548173ffffffffffffffffffffffffffffffffffffffff021916908373ffffffffffffffffffffffffffffffffffffffff16021790555060208201518160010160006101000a81548173ffffffffffffffffffffffffffffffffffffffff021916908373ffffffffffffffffffffffffffffffffffffffff1602179055506040820151816002019081610a529190611418565b5060608201518160030155505050505050505050565b60008054906101000a900473ffffffffffffffffffffffffffffffffffffffff1673ffffffffffffffffffffffffffffffffffffffff163373ffffffffffffffffffffffffffffffffffffffff1614610af6576040517f08c379a0000000000000000000000000000000000000000000000000000000008152600401610aed90611536565b60405180910390fd5b600060149054906101000a900460ff1615600060146101000a81548160ff021916908315150217905550565b612ca08061155783390190565b6000604051905090565b600080fd5b600080fd5b6000819050919050565b610b5681610b43565b8114610b6157600080fd5b50565b600081359050610b7381610b4d565b92915050565b600060208284031215610b8f57610b8e610b39565b5b6000610b9d84828501610b64565b91505092915050565b600073ffffffffffffffffffffffffffffffffffffffff82169050919050565b6000610bd182610ba6565b9050919050565b610be181610bc6565b82525050565b600081519050919050565b600082825260208201905092915050565b60005b83811015610c21578082015181840152602081019050610c06565b60008484015250505050565b6000601f19601f8301169050919050565b6000610c4982610be7565b610c538185610bf2565b9350610c63818560208601610c03565b610c6c81610c2d565b840191505092915050565b610c8081610b43565b82525050565b6000608082019050610c9b6000830187610bd8565b610ca86020830186610bd8565b8181036040830152610cba8185610c3e565b9050610cc96060830184610c77565b95945050505050565b610cdb81610bc6565b8114610ce657600080fd5b50565b600081359050610cf881610cd2565b92915050565b60008060408385031215610d1557610d14610b39565b5b6000610d2385828601610ce9565b9250506020610d3485828601610b64565b9150509250929050565b60008115159050919050565b610d5381610d3e565b82525050565b6000602082019050610d6e6000830184610d4a565b92915050565b600081519050919050565b600082825260208201905092915050565b6000819050602082019050919050565b610da981610bc6565b82525050565b600082825260208201905092915050565b6000610dcb82610be7565b610dd58185610daf565b9350610de5818560208601610c03565b610dee81610c2d565b840191505092915050565b610e0281610b43565b82525050565b6000608083016000830151610e206000860182610da0565b506020830151610e336020860182610da0565b5060408301518482036040860152610e4b8282610dc0565b9150506060830151610e606060860182610df9565b508091505092915050565b6000610e778383610e08565b905092915050565b6000602082019050919050565b6000610e9782610d74565b610ea18185610d7f565b935083602082028501610eb385610d90565b8060005b85811015610eef5784840389528151610ed08582610e6b565b9450610edb83610e7f565b925060208a01995050600181019050610eb7565b50829750879550505050505092915050565b60006020820190508181036000830152610f1b8184610e8c565b905092915050565b6000602082019050610f386000830184610bd8565b92915050565b600060208284031215610f5457610f53610b39565b5b6000610f6284828501610ce9565b91505092915050565b600080fd5b600080fd5b7f4e487b7100000000000000000000000000000000000000000000000000000000600052604160045260246000fd5b610fad82610c2d565b810181811067ffffffffffffffff82111715610fcc57610fcb610f75565b5b80604052505050565b6000610fdf610b2f565b9050610feb8282610fa4565b919050565b600067ffffffffffffffff82111561100b5761100a610f75565b5b61101482610c2d565b9050602081019050919050565b82818337600083830152505050565b600061104361103e84610ff0565b610fd5565b90508281526020810184848401111561105f5761105e610f70565b5b61106a848285611021565b509392505050565b600082601f83011261108757611086610f6b565b5b8135611097848260208601611030565b91505092915050565b600080600080608085870312156110ba576110b9610b39565b5b600085013567ffffffffffffffff8111156110d8576110d7610b3e565b5b6110e487828801611072565b945050602085013567ffffffffffffffff81111561110557611104610b3e565b5b61111187828801611072565b935050604061112287828801610b64565b925050606061113387828801610b64565b91505092959194509250565b7f4e487b7100000000000000000000000000000000000000000000000000000000600052602260045260246000fd5b6000600282049050600182168061118657607f821691505b6020821081036111995761119861113f565b5b50919050565b7f466163746f727920697320706175736564000000000000000000000000000000600082015250565b60006111d5601183610bf2565b91506111e08261119f565b602082019050919050565b60006020820190508181036000830152611204816111c8565b9050919050565b600060a0820190506112206000830188610bd8565b81810360208301526112328187610c3e565b905081810360408301526112468186610c3e565b90506112556060830185610c77565b6112626080830184610c77565b9695505050505050565b60008190508160005260206000209050919050565b60006020601f8301049050919050565b600082821b905092915050565b6000600883026112ce7fffffffffffffffffffffffffffffffffffffffffffffffffffffffffffffffff82611291565b6112d88683611291565b95508019841693508086168417925050509392505050565b6000819050919050565b600061131561131061130b84610b43565b6112f0565b610b43565b9050919050565b6000819050919050565b61132f836112fa565b61134361133b8261131c565b84845461129e565b825550505050565b600090565b61135861134b565b611363818484611326565b505050565b5b818110156113875761137c600082611350565b600181019050611369565b5050565b601f8211156113cc5761139d8161126c565b6113a684611281565b810160208510156113b5578190505b6113c96113c185611281565b830182611368565b50505b505050565b600082821c905092915050565b60006113ef600019846008026113d1565b1980831691505092915050565b600061140883836113de565b9150826002028217905092915050565b61142182610be7565b67ffffffffffffffff81111561143a57611439610f75565b5b611444825461116e565b61144f82828561138b565b600060209050601f8311600181146114825760008415611470578287015190505b61147a85826113fc565b8655506114e2565b601f1984166114908661126c565b60005b828110156114b857848901518255600182019150602085019450602081019050611493565b868310156114d557848901516114d1601f8916826113de565b8355505b6001600288020188555050505b505050505050565b7f4e6f74206f776e65722e00000000000000000000000000000000000000000000600082015250565b6000611520600a83610bf2565b915061152b826114ea565b602082019050919050565b6000602082019050818103600083015261154f81611513565b905091905056fe608060405234801561001057600080fd5b50604051612ca0380380612ca0833981810160405281019061003291906102f8565b836000908161004191906105c2565b50826001908161005191906105c2565b5081600281905550620151808161006891906106c3565b426100739190610705565b60038190555084600460006101000a81548173ffffffffffffffffffffffffffffffffffffffff021916908373ffffffffffffffffffffffffffffffffffffffff1602179055506000600460156101000a81548160ff021916908360028111156100e0576100df610739565b5b02179055505050505050610768565b6000604051905090565b600080fd5b600080fd5b600073ffffffffffffffffffffffffffffffffffffffff82169050919050565b600061012e82610103565b9050919050565b61013e81610123565b811461014957600080fd5b50565b60008151905061015b81610135565b92915050565b600080fd5b600080fd5b6000601f19601f8301169050919050565b7f4e487b7100000000000000000000000000000000000000000000000000000000600052604160045260246000fd5b6101b48261016b565b810181811067ffffffffffffffff821117156101d3576101d261017c565b5b80604052505050565b60006101e66100ef565b90506101f282826101ab565b919050565b600067ffffffffffffffff8211156102125761021161017c565b5b61021b8261016b565b9050602081019050919050565b60005b8381101561024657808201518184015260208101905061022b565b60008484015250505050565b6000610265610260846101f7565b6101dc565b90508281526020810184848401111561028157610280610166565b5b61028c848285610228565b509392505050565b600082601f8301126102a9576102a8610161565b5b81516102b9848260208601610252565b91505092915050565b6000819050919050565b6102d5816102c2565b81146102e057600080fd5b50565b6000815190506102f2816102cc565b92915050565b600080600080600060a08688031215610314576103136100f9565b5b60006103228882890161014c565b955050602086015167ffffffffffffffff811115610343576103426100fe565b5b61034f88828901610294565b945050604086015167ffffffffffffffff8111156103705761036f6100fe565b5b61037c88828901610294565b935050606061038d888289016102e3565b925050608061039e888289016102e3565b9150509295509295909350565b600081519050919050565b7f4e487b7100000000000000000000000000000000000000000000000000000000600052602260045260246000fd5b600060028204905060018216806103fd57607f821691505b6020821081036104105761040f6103b6565b5b50919050565b60008190508160005260206000209050919050565b60006020601f8301049050919050565b600082821b905092915050565b6000600883026104787fffffffffffffffffffffffffffffffffffffffffffffffffffffffffffffffff8261043b565b610482868361043b565b95508019841693508086168417925050509392505050565b6000819050919050565b60006104bf6104ba6104b5846102c2565b61049a565b6102c2565b9050919050565b6000819050919050565b6104d9836104a4565b6104ed6104e5826104c6565b848454610448565b825550505050565b600090565b6105026104f5565b61050d8184846104d0565b505050565b5b81811015610531576105266000826104fa565b600181019050610513565b5050565b601f8211156105765761054781610416565b6105508461042b565b8101602085101561055f578190505b61057361056b8561042b565b830182610512565b50505b505050565b600082821c905092915050565b60006105996000198460080261057b565b1980831691505092915050565b60006105b28383610588565b9150826002028217905092915050565b6105cb826103ab565b67ffffffffffffffff8111156105e4576105e361017c565b5b6105ee82546103e5565b6105f9828285610535565b600060209050601f83116001811461062c576000841561061a578287015190505b61062485826105a6565b86555061068c565b601f19841661063a86610416565b60005b828110156106625784890151825560018201915060208501945060208101905061063d565b8683101561067f578489015161067b601f891682610588565b8355505b6001600288020188555050505b505050505050565b7f4e487b7100000000000000000000000000000000000000000000000000000000600052601160045260246000fd5b60006106ce826102c2565b91506106d9836102c2565b92508282026106e7816102c2565b915082820484148315176106fe576106fd610694565b5b5092915050565b6000610710826102c2565b915061071b836102c2565b925082820190508082111561073357610732610694565b5b92915050565b7f4e487b7100000000000000000000000000000000000000000000000000000000600052602160045260246000fd5b612529806107776000396000f3fe60806040526004361061011f5760003560e01c80637284e416116100a0578063b85dfb8011610064578063b85dfb80146103a1578063c19d93fb146103de578063c4ae316814610409578063ca1d209d14610420578063de1705701461043c5761011f565b80637284e416146102bc5780637497211b146102e75780637adba527146103105780638da5cb5b1461034d5780638ece7b91146103785761011f565b80633ccfd60b116100e75780633ccfd60b1461020d5780634019388314610224578063590e1ae31461024f5780635c975abb146102665780636f9fb98a146102915761011f565b8063039af9eb1461012457806306fdde0314610163578063105505151461018e57806329dcb0cf146101b9578063389b7533146101e4575b600080fd5b34801561013057600080fd5b5061014b600480360381019061014691906114d2565b610467565b60405161015a9392919061159e565b60405180910390f35b34801561016f57600080fd5b50610178610529565b60405161018591906115dc565b60405180910390f35b34801561019a57600080fd5b506101a36105b7565b6040516101b09190611675565b60405180910390f35b3480156101c557600080fd5b506101ce610632565b6040516101db9190611690565b60405180910390f35b3480156101f057600080fd5b5061020b600480360381019061020691906114d2565b610638565b005b34801561021957600080fd5b50610222610768565b005b34801561023057600080fd5b5061023961092a565b6040516102469190611690565b60405180910390f35b34801561025b57600080fd5b50610264610930565b005b34801561027257600080fd5b5061027b610ac9565b60405161028891906116c6565b60405180910390f35b34801561029d57600080fd5b506102a6610adc565b6040516102b39190611690565b60405180910390f35b3480156102c857600080fd5b506102d1610ae4565b6040516102de91906115dc565b60405180910390f35b3480156102f357600080fd5b5061030e600480360381019061030991906114d2565b610b72565b005b34801561031c57600080fd5b506103376004803603810190610332919061173f565b610d18565b60405161034491906116c6565b60405180910390f35b34801561035957600080fd5b50610362610d83565b60405161036f919061178e565b60405180910390f35b34801561038457600080fd5b5061039f600480360381019061039a91906118de565b610da9565b005b3480156103ad57600080fd5b506103c860048036038101906103c3919061193a565b610ef3565b6040516103d59190611690565b60405180910390f35b3480156103ea57600080fd5b506103f3610f11565b6040516104009190611675565b60405180910390f35b34801561041557600080fd5b5061041e610f24565b005b61043a600480360381019061043591906114d2565b610fe0565b005b34801561044857600080fd5b5061045161125f565b60405161045e9190611ad2565b60405180910390f35b6005818154811061047757600080fd5b906000526020600020906003020160009150905080600001805461049a90611b23565b80601f01602080910402602001604051908101604052809291908181526020018280546104c690611b23565b80156105135780601f106104e857610100808354040283529160200191610513565b820191906000526020600020905b8154815290600101906020018083116104f657829003601f168201915b5050505050908060010154908060020154905083565b6000805461053690611b23565b80601f016020809104026020016040519081016040528092919081815260200182805461056290611b23565b80156105af5780601f10610584576101008083540402835291602001916105af565b820191906000526020600020905b81548152906001019060200180831161059257829003601f168201915b505050505081565b60008060028111156105cc576105cb6115fe565b5b600460159054906101000a900460ff1660028111156105ee576105ed6115fe565b5b1480156105fc575060035442115b1561061c57600254471015610612576002610615565b60015b905061062f565b600460159054906101000a900460ff1690505b90565b60035481565b600460009054906101000a900473ffffffffffffffffffffffffffffffffffffffff1673ffffffffffffffffffffffffffffffffffffffff163373ffffffffffffffffffffffffffffffffffffffff16146106c8576040517f08c379a00000000000000000000000000000000000000000000000000000000081526004016106bf90611ba0565b60405180910390fd5b600060028111156106dc576106db6115fe565b5b600460159054906101000a900460ff1660028111156106fe576106fd6115fe565b5b1461073e576040517f08c379a000000000000000000000000000000000000000000000000000000000815260040161073590611c0c565b60405180910390fd5b620151808161074d9190611c5b565b6003600082825461075e9190611c9d565b9250508190555050565b600460009054906101000a900473ffffffffffffffffffffffffffffffffffffffff1673ffffffffffffffffffffffffffffffffffffffff163373ffffffffffffffffffffffffffffffffffffffff16146107f8576040517f08c379a00000000000000000000000000000000000000000000000000000000081526004016107ef90611ba0565b60405180910390fd5b610800611364565b60016002811115610814576108136115fe565b5b600460159054906101000a900460ff166002811115610836576108356115fe565b5b14610876576040517f08c379a000000000000000000000000000000000000000000000000000000000815260040161086d90611d1d565b60405180910390fd5b6000479050600081116108be576040517f08c379a00000000000000000000000000000000000000000000000000000000081526004016108b590611d89565b60405180910390fd5b600460009054906101000a900473ffffffffffffffffffffffffffffffffffffffff1673ffffffffffffffffffffffffffffffffffffffff166108fc829081150290604051600060405180830381858888f19350505050158015610926573d6000803e3d6000fd5b5050565b60025481565b610938611364565b60028081111561094b5761094a6115fe565b5b600460159054906101000a900460ff16600281111561096d5761096c6115fe565b5b146109ad576040517f08c379a00000000000000000000000000000000000000000000000000000000081526004016109a490611df5565b60405180910390fd5b6000600660003373ffffffffffffffffffffffffffffffffffffffff1673ffffffffffffffffffffffffffffffffffffffff16815260200190815260200160002060000154905060008111610a37576040517f08c379a0000000000000000000000000000000000000000000000000000000008152600401610a2e90611e61565b60405180910390fd5b6000600660003373ffffffffffffffffffffffffffffffffffffffff1673ffffffffffffffffffffffffffffffffffffffff168152602001908152602001600020600001819055503373ffffffffffffffffffffffffffffffffffffffff166108fc829081150290604051600060405180830381858888f19350505050158015610ac5573d6000803e3d6000fd5b5050565b600460149054906101000a900460ff1681565b600047905090565b60018054610af190611b23565b80601f0160208091040260200160405190810160405280929190818152602001828054610b1d90611b23565b8015610b6a5780601f10610b3f57610100808354040283529160200191610b6a565b820191906000526020600020905b815481529060010190602001808311610b4d57829003601f168201915b505050505081565b600460009054906101000a900473ffffffffffffffffffffffffffffffffffffffff1673ffffffffffffffffffffffffffffffffffffffff163373ffffffffffffffffffffffffffffffffffffffff1614610c02576040517f08c379a0000000000000000000000000000000000000000000000000000000008152600401610bf990611ba0565b60405180910390fd5b6005805490508110610c49576040517f08c379a0000000000000000000000000000000000000000000000000000000008152600401610c4090611ecd565b60405180910390fd5b60056001600580549050610c5d9190611eed565b81548110610c6e57610c6d611f21565b5b906000526020600020906003020160058281548110610c9057610c8f611f21565b5b906000526020600020906003020160008201816000019081610cb29190612112565b5060018201548160010155600282015481600201559050506005805480610cdc57610cdb6121fa565b5b600190038181906000526020600020906003020160008082016000610d01919061142b565b600182016000905560028201600090555050905550565b6000600660008473ffffffffffffffffffffffffffffffffffffffff1673ffffffffffffffffffffffffffffffffffffffff168152602001908152602001600020600101600083815260200190815260200160002060009054906101000a900460ff16905092915050565b600460009054906101000a900473ffffffffffffffffffffffffffffffffffffffff1681565b600460009054906101000a900473ffffffffffffffffffffffffffffffffffffffff1673ffffffffffffffffffffffffffffffffffffffff163373ffffffffffffffffffffffffffffffffffffffff1614610e39576040517f08c379a0000000000000000000000000000000000000000000000000000000008152600401610e3090611ba0565b60405180910390fd5b60008111610e7c576040517f08c379a0000000000000000000000000000000000000000000000000000000008152600401610e7390612275565b60405180910390fd5b60056040518060600160405280848152602001838152602001600081525090806001815401808255809150506001900390600052602060002090600302016000909190919091506000820151816000019081610ed89190612295565b50602082015181600101556040820151816002015550505050565b60066020528060005260406000206000915090508060000154905081565b600460159054906101000a900460ff1681565b600460009054906101000a900473ffffffffffffffffffffffffffffffffffffffff1673ffffffffffffffffffffffffffffffffffffffff163373ffffffffffffffffffffffffffffffffffffffff1614610fb4576040517f08c379a0000000000000000000000000000000000000000000000000000000008152600401610fab90611ba0565b60405180910390fd5b600460149054906101000a900460ff1615600460146101000a81548160ff021916908315150217905550565b60006002811115610ff457610ff36115fe565b5b600460159054906101000a900460ff166002811115611016576110156115fe565b5b14611056576040517f08c379a000000000000000000000000000000000000000000000000000000000815260040161104d90611c0c565b60405180910390fd5b600460149054906101000a900460ff16156110a6576040517f08c379a000000000000000000000000000000000000000000000000000000000815260040161109d906123b3565b60405180910390fd5b60058054905081106110ed576040517f08c379a00000000000000000000000000000000000000000000000000000000081526004016110e49061241f565b60405180910390fd5b6005818154811061110157611100611f21565b5b9060005260206000209060030201600101543414611154576040517f08c379a000000000000000000000000000000000000000000000000000000000815260040161114b9061248b565b60405180910390fd5b6005818154811061116857611167611f21565b5b9060005260206000209060030201600201600081548092919061118a906124ab565b919050555034600660003373ffffffffffffffffffffffffffffffffffffffff1673ffffffffffffffffffffffffffffffffffffffff16815260200190815260200160002060000160008282546111e19190611c9d565b925050819055506001600660003373ffffffffffffffffffffffffffffffffffffffff1673ffffffffffffffffffffffffffffffffffffffff168152602001908152602001600020600101600083815260200190815260200160002060006101000a81548160ff02191690831515021790555061125c611364565b50565b60606005805480602002602001604051908101604052809291908181526020016000905b8282101561135b57838290600052602060002090600302016040518060600160405290816000820180546112b690611b23565b80601f01602080910402602001604051908101604052809291908181526020018280546112e290611b23565b801561132f5780601f106113045761010080835404028352916020019161132f565b820191906000526020600020905b81548152906001019060200180831161131257829003601f168201915b505050505081526020016001820154815260200160028201548152505081526020019060010190611283565b50505050905090565b60006002811115611378576113776115fe565b5b600460159054906101000a900460ff16600281111561139a576113996115fe565b5b036114295760035442106113ea576002544710156113b95760026113bc565b60015b600460156101000a81548160ff021916908360028111156113e0576113df6115fe565b5b0217905550611428565b6002544710156113fb5760006113fe565b60015b600460156101000a81548160ff02191690836002811115611422576114216115fe565b5b02179055505b5b565b50805461143790611b23565b6000825580601f106114495750611468565b601f016020900490600052602060002090810190611467919061146b565b5b50565b5b8082111561148457600081600090555060010161146c565b5090565b6000604051905090565b600080fd5b600080fd5b6000819050919050565b6114af8161149c565b81146114ba57600080fd5b50565b6000813590506114cc816114a6565b92915050565b6000602082840312156114e8576114e7611492565b5b60006114f6848285016114bd565b91505092915050565b600081519050919050565b600082825260208201905092915050565b60005b8381101561153957808201518184015260208101905061151e565b60008484015250505050565b6000601f19601f8301169050919050565b6000611561826114ff565b61156b818561150a565b935061157b81856020860161151b565b61158481611545565b840191505092915050565b6115988161149c565b82525050565b600060608201905081810360008301526115b88186611556565b90506115c7602083018561158f565b6115d4604083018461158f565b949350505050565b600060208201905081810360008301526115f68184611556565b905092915050565b7f4e487b7100000000000000000000000000000000000000000000000000000000600052602160045260246000fd5b6003811061163e5761163d6115fe565b5b50565b600081905061164f8261162d565b919050565b600061165f82611641565b9050919050565b61166f81611654565b82525050565b600060208201905061168a6000830184611666565b92915050565b60006020820190506116a5600083018461158f565b92915050565b60008115159050919050565b6116c0816116ab565b82525050565b60006020820190506116db60008301846116b7565b92915050565b600073ffffffffffffffffffffffffffffffffffffffff82169050919050565b600061170c826116e1565b9050919050565b61171c81611701565b811461172757600080fd5b50565b60008135905061173981611713565b92915050565b6000806040838503121561175657611755611492565b5b60006117648582860161172a565b9250506020611775858286016114bd565b9150509250929050565b61178881611701565b82525050565b60006020820190506117a3600083018461177f565b92915050565b600080fd5b600080fd5b7f4e487b7100000000000000000000000000000000000000000000000000000000600052604160045260246000fd5b6117eb82611545565b810181811067ffffffffffffffff8211171561180a576118096117b3565b5b80604052505050565b600061181d611488565b905061182982826117e2565b919050565b600067ffffffffffffffff821115611849576118486117b3565b5b61185282611545565b9050602081019050919050565b82818337600083830152505050565b600061188161187c8461182e565b611813565b90508281526020810184848401111561189d5761189c6117ae565b5b6118a884828561185f565b509392505050565b600082601f8301126118c5576118c46117a9565b5b81356118d584826020860161186e565b91505092915050565b600080604083850312156118f5576118f4611492565b5b600083013567ffffffffffffffff81111561191357611912611497565b5b61191f858286016118b0565b9250506020611930858286016114bd565b9150509250929050565b6000602082840312156119505761194f611492565b5b600061195e8482850161172a565b91505092915050565b600081519050919050565b600082825260208201905092915050565b6000819050602082019050919050565b600082825260208201905092915050565b60006119af826114ff565b6119b98185611993565b93506119c981856020860161151b565b6119d281611545565b840191505092915050565b6119e68161149c565b82525050565b60006060830160008301518482036000860152611a0982826119a4565b9150506020830151611a1e60208601826119dd565b506040830151611a3160408601826119dd565b508091505092915050565b6000611a4883836119ec565b905092915050565b6000602082019050919050565b6000611a6882611967565b611a728185611972565b935083602082028501611a8485611983565b8060005b85811015611ac05784840389528151611aa18582611a3c565b9450611aac83611a50565b925060208a01995050600181019050611a88565b50829750879550505050505092915050565b60006020820190508181036000830152611aec8184611a5d565b905092915050565b7f4e487b7100000000000000000000000000000000000000000000000000000000600052602260045260246000fd5b60006002820490506001821680611b3b57607f821691505b602082108103611b4e57611b4d611af4565b5b50919050565b7f4e6f7420746865206f776e657200000000000000000000000000000000000000600082015250565b6000611b8a600d8361150a565b9150611b9582611b54565b602082019050919050565b60006020820190508181036000830152611bb981611b7d565b9050919050565b7f43616d706169676e206973206e6f74206163746976652e000000000000000000600082015250565b6000611bf660178361150a565b9150611c0182611bc0565b602082019050919050565b60006020820190508181036000830152611c2581611be9565b9050919050565b7f4e487b7100000000000000000000000000000000000000000000000000000000600052601160045260246000fd5b6000611c668261149c565b9150611c718361149c565b9250828202611c7f8161149c565b91508282048414831517611c9657611c95611c2c565b5b5092915050565b6000611ca88261149c565b9150611cb38361149c565b9250828201905080821115611ccb57611cca611c2c565b5b92915050565b7f43616d706169676e206e6f74207375636365737366756c2e0000000000000000600082015250565b6000611d0760188361150a565b9150611d1282611cd1565b602082019050919050565b60006020820190508181036000830152611d3681611cfa565b9050919050565b7f4e6f2062616c616e636520746f20776974686472617700000000000000000000600082015250565b6000611d7360168361150a565b9150611d7e82611d3d565b602082019050919050565b60006020820190508181036000830152611da281611d66565b9050919050565b7f526566756e6473206e6f7420617661696c61626c652e00000000000000000000600082015250565b6000611ddf60168361150a565b9150611dea82611da9565b602082019050919050565b60006020820190508181036000830152611e0e81611dd2565b9050919050565b7f4e6f20636f6e747269627574696f6e20746f20726566756e6400000000000000600082015250565b6000611e4b60198361150a565b9150611e5682611e15565b602082019050919050565b60006020820190508181036000830152611e7a81611e3e565b9050919050565b7f5469657220646f6573206e6f742065786973742e000000000000000000000000600082015250565b6000611eb760148361150a565b9150611ec282611e81565b602082019050919050565b60006020820190508181036000830152611ee681611eaa565b9050919050565b6000611ef88261149c565b9150611f038361149c565b9250828203905081811115611f1b57611f1a611c2c565b5b92915050565b7f4e487b7100000000000000000000000000000000000000000000000000000000600052603260045260246000fd5b600081549050611f5f81611b23565b9050919050565b60008190508160005260206000209050919050565b60006020601f8301049050919050565b600082821b905092915050565b600060088302611fc87fffffffffffffffffffffffffffffffffffffffffffffffffffffffffffffffff82611f8b565b611fd28683611f8b565b95508019841693508086168417925050509392505050565b6000819050919050565b600061200f61200a6120058461149c565b611fea565b61149c565b9050919050565b6000819050919050565b61202983611ff4565b61203d61203582612016565b848454611f98565b825550505050565b600090565b612052612045565b61205d818484612020565b505050565b5b818110156120815761207660008261204a565b600181019050612063565b5050565b601f8211156120c65761209781611f66565b6120a084611f7b565b810160208510156120af578190505b6120c36120bb85611f7b565b830182612062565b50505b505050565b600082821c905092915050565b60006120e9600019846008026120cb565b1980831691505092915050565b600061210283836120d8565b9150826002028217905092915050565b8181036121205750506121f8565b61212982611f50565b67ffffffffffffffff811115612142576121416117b3565b5b61214c8254611b23565b612157828285612085565b6000601f8311600181146121865760008415612174578287015490505b61217e85826120f6565b8655506121f1565b601f19841661219487611f66565b965061219f86611f66565b60005b828110156121c7578489015482556001820191506001850194506020810190506121a2565b868310156121e457848901546121e0601f8916826120d8565b8355505b6001600288020188555050505b5050505050505b565b7f4e487b7100000000000000000000000000000000000000000000000000000000600052603160045260246000fd5b7f416d6f756e74206d7573742062652067726561746572207468616e20302e0000600082015250565b600061225f601e8361150a565b915061226a82612229565b602082019050919050565b6000602082019050818103600083015261228e81612252565b9050919050565b61229e826114ff565b67ffffffffffffffff8111156122b7576122b66117b3565b5b6122c18254611b23565b6122cc828285612085565b600060209050601f8311600181146122ff57600084156122ed578287015190505b6122f785826120f6565b86555061235f565b601f19841661230d86611f66565b60005b8281101561233557848901518255600182019150602085019450602081019050612310565b86831015612352578489015161234e601f8916826120d8565b8355505b6001600288020188555050505b505050505050565b7f436f6e7472616374206973207061757365642e00000000000000000000000000600082015250565b600061239d60138361150a565b91506123a882612367565b602082019050919050565b600060208201905081810360008301526123cc81612390565b9050919050565b7f496e76616c696420746965722e00000000000000000000000000000000000000600082015250565b6000612409600d8361150a565b9150612414826123d3565b602082019050919050565b60006020820190508181036000830152612438816123fc565b9050919050565b7f496e636f727265637420616d6f756e742e000000000000000000000000000000600082015250565b600061247560118361150a565b91506124808261243f565b602082019050919050565b600060208201905081810360008301526124a481612468565b9050919050565b60006124b68261149c565b91507fffffffffffffffffffffffffffffffffffffffffffffffffffffffffffffffff82036124e8576124e7611c2c565b5b60018201905091905056fea2646970667358221220fcac3ad3975cf0200ca90284a82f15602f70be74a6539adf8a456c535eebc92964736f6c634300081c0033a2646970667358221220edaf02cbac888a1f4a4cf324fc118264aa2aed31844dc0b6d3dee0c9eef3b81a64736f6c634300081c0033",
  "linkReferences": {},
  "deployedLinkReferences": {}
}